{
    "_format": "hh-sol-artifact-1",
    "contractName": "WavePortal",
    "sourceName": "contracts/WavePortal.sol",
    "abi": [
        {
            "inputs": [],
            "stateMutability": "nonpayable",
            "type": "constructor"
        },
        {
            "anonymous": false,
            "inputs": [
                {
                    "indexed": true,
                    "internalType": "address",
                    "name": "from",
                    "type": "address"
                },
                {
                    "indexed": false,
                    "internalType": "uint256",
                    "name": "timestamp",
                    "type": "uint256"
                },
                {
                    "indexed": false,
                    "internalType": "string",
                    "name": "message",
                    "type": "string"
                }
            ],
            "name": "NewWave",
            "type": "event"
        },
        {
            "inputs": [],
            "name": "getTotalWaves",
            "outputs": [
                {
                    "internalType": "uint256",
                    "name": "",
                    "type": "uint256"
                }
            ],
            "stateMutability": "view",
            "type": "function"
        },
        {
            "inputs": [],
            "name": "getWaves",
            "outputs": [
                {
                    "components": [
                        {
                            "internalType": "address",
                            "name": "waver",
                            "type": "address"
                        },
                        {
                            "internalType": "uint256",
                            "name": "timestamp",
                            "type": "uint256"
                        },
                        {
                            "internalType": "string",
                            "name": "message",
                            "type": "string"
                        }
                    ],
                    "internalType": "struct WavePortal.Wave[]",
                    "name": "",
                    "type": "tuple[]"
                }
            ],
            "stateMutability": "view",
            "type": "function"
        },
        {
            "inputs": [
                {
                    "internalType": "string",
                    "name": "message",
                    "type": "string"
                }
            ],
            "name": "wave",
            "outputs": [],
            "stateMutability": "nonpayable",
            "type": "function"
        }
    ],
    "bytecode": "0x608060405234801561001057600080fd5b506100596040518060400160405280602081526020017f496e697469616c697a696e672057617665506f7274616c20436f6e747261637481525061005e60201b61032e1760201c565b6101e1565b6100fa81604051602401610072919061015f565b6040516020818303038152906040527f41304fac000000000000000000000000000000000000000000000000000000007bffffffffffffffffffffffffffffffffffffffffffffffffffffffff19166020820180517bffffffffffffffffffffffffffffffffffffffffffffffffffffffff83818316178352505050506100fd60201b60201c565b50565b60008151905060006a636f6e736f6c652e6c6f679050602083016000808483855afa5050505050565b600061013182610181565b61013b818561018c565b935061014b81856020860161019d565b610154816101d0565b840191505092915050565b600060208201905081810360008301526101798184610126565b905092915050565b600081519050919050565b600082825260208201905092915050565b60005b838110156101bb5780820151818401526020810190506101a0565b838111156101ca576000848401525b50505050565b6000601f19601f8301169050919050565b6109fd806101f06000396000f3fe608060405234801561001057600080fd5b50600436106100415760003560e01c8063449d46c0146100465780639a2cdc0814610062578063a9d42f7e14610080575b600080fd5b610060600480360381019061005b91906104fb565b61009e565b005b61006a6101d4565b60405161007791906106f8565b60405180910390f35b6100886101dd565b60405161009591906106b4565b60405180910390f35b6000808154809291906100b0906108e0565b9190505550600160405180606001604052803373ffffffffffffffffffffffffffffffffffffffff16815260200142815260200183815250908060018154018082558091505060019003906000526020600020906003020160009091909190915060008201518160000160006101000a81548173ffffffffffffffffffffffffffffffffffffffff021916908373ffffffffffffffffffffffffffffffffffffffff16021790555060208201518160010155604082015181600201908051906020019061017e9291906103f0565b5050503373ffffffffffffffffffffffffffffffffffffffff167f5f7e16dc676677766a70e9c5628aa6c54ddb8b6e5188e2ae1e1f17f1ffbea71642836040516101c9929190610713565b60405180910390a250565b60008054905090565b60606001805480602002602001604051908101604052809291908181526020016000905b8282101561032557838290600052602060002090600302016040518060600160405290816000820160009054906101000a900473ffffffffffffffffffffffffffffffffffffffff1673ffffffffffffffffffffffffffffffffffffffff1673ffffffffffffffffffffffffffffffffffffffff168152602001600182015481526020016002820180546102949061087d565b80601f01602080910402602001604051908101604052809291908181526020018280546102c09061087d565b801561030d5780601f106102e25761010080835404028352916020019161030d565b820191906000526020600020905b8154815290600101906020018083116102f057829003601f168201915b50505050508152505081526020019060010190610201565b50505050905090565b6103c48160405160240161034291906106d6565b6040516020818303038152906040527f41304fac000000000000000000000000000000000000000000000000000000007bffffffffffffffffffffffffffffffffffffffffffffffffffffffff19166020820180517bffffffffffffffffffffffffffffffffffffffffffffffffffffffff83818316178352505050506103c7565b50565b60008151905060006a636f6e736f6c652e6c6f679050602083016000808483855afa5050505050565b8280546103fc9061087d565b90600052602060002090601f01602090048101928261041e5760008555610465565b82601f1061043757805160ff1916838001178555610465565b82800160010185558215610465579182015b82811115610464578251825591602001919060010190610449565b5b5090506104729190610476565b5090565b5b8082111561048f576000816000905550600101610477565b5090565b60006104a66104a184610768565b610743565b9050828152602081018484840111156104be57600080fd5b6104c984828561083b565b509392505050565b600082601f8301126104e257600080fd5b81356104f2848260208601610493565b91505092915050565b60006020828403121561050d57600080fd5b600082013567ffffffffffffffff81111561052757600080fd5b610533848285016104d1565b91505092915050565b60006105488383610646565b905092915050565b610559816107ff565b82525050565b600061056a826107a9565b61057481856107cc565b93508360208202850161058685610799565b8060005b858110156105c257848403895281516105a3858261053c565b94506105ae836107bf565b925060208a0199505060018101905061058a565b50829750879550505050505092915050565b60006105df826107b4565b6105e981856107dd565b93506105f981856020860161084a565b610602816109b6565b840191505092915050565b6000610618826107b4565b61062281856107ee565b935061063281856020860161084a565b61063b816109b6565b840191505092915050565b600060608301600083015161065e6000860182610550565b5060208301516106716020860182610696565b506040830151848203604086015261068982826105d4565b9150508091505092915050565b61069f81610831565b82525050565b6106ae81610831565b82525050565b600060208201905081810360008301526106ce818461055f565b905092915050565b600060208201905081810360008301526106f0818461060d565b905092915050565b600060208201905061070d60008301846106a5565b92915050565b600060408201905061072860008301856106a5565b818103602083015261073a818461060d565b90509392505050565b600061074d61075e565b905061075982826108af565b919050565b6000604051905090565b600067ffffffffffffffff82111561078357610782610987565b5b61078c826109b6565b9050602081019050919050565b6000819050602082019050919050565b600081519050919050565b600081519050919050565b6000602082019050919050565b600082825260208201905092915050565b600082825260208201905092915050565b600082825260208201905092915050565b600061080a82610811565b9050919050565b600073ffffffffffffffffffffffffffffffffffffffff82169050919050565b6000819050919050565b82818337600083830152505050565b60005b8381101561086857808201518184015260208101905061084d565b83811115610877576000848401525b50505050565b6000600282049050600182168061089557607f821691505b602082108114156108a9576108a8610958565b5b50919050565b6108b8826109b6565b810181811067ffffffffffffffff821117156108d7576108d6610987565b5b80604052505050565b60006108eb82610831565b91507fffffffffffffffffffffffffffffffffffffffffffffffffffffffffffffffff82141561091e5761091d610929565b5b600182019050919050565b7f4e487b7100000000000000000000000000000000000000000000000000000000600052601160045260246000fd5b7f4e487b7100000000000000000000000000000000000000000000000000000000600052602260045260246000fd5b7f4e487b7100000000000000000000000000000000000000000000000000000000600052604160045260246000fd5b6000601f19601f830116905091905056fea2646970667358221220da4f601653f88da045d0a8a09446ce4703aab3767d3dd9fa168ffcbe0a32f85f64736f6c63430008040033",
    "linkReferences": {},
    "deployedLinkReferences": {}
}